:020000040800F2
:100000000000032085340008013000080530000896
:10001000093000080D300008113000080000000011
:100020000000000000000000000000001530000883
:1000300019300008000000001D30000821300008C1
:10004000D5340008D5340008D5340008D53400086C
:10005000D5340008D5340008D5340008D53400085C
:10006000D5340008D5340008D5340008D53400084C
:10007000D5340008D5340008D5340008D53400083C
:10008000D5340008D5340008D5340008D53400082C
:10009000D5340008D5340008D5340008D53400081C
:1000A000D5340008D5340008D5340008D53400080C
:1000B000D5340008D5340008D5340008D5340008FC
:1000C000D5340008D5340008D5340008D5340008EC
:1000D000D5340008D5340008D53400082530000890
:1000E00031300008D5340008D5340008D534000874
:1000F000D5340008D534000849300008D53400084C
:10010000D5340008D5340008D5340008D5340008AB
:10011000D5340008D534000855300008D53400081F
:10012000D5340008D5340008D5340008D53400088B
:10013000D5340008D5340008D5340008D53400087B
:10014000D5340008D5340008D5340008D53400086B
:10015000D5340008D5340008D5340008D53400085B
:10016000D5340008D5340008D5340008D53400084B
:10017000D5340008D5340008D5340008000000004C
:10018000D5340008D5340008D5340008D53400082B
:10019000D5340008D5340008D5340008D53400081B
:0C01A000D5340008D5340008D534000820
:1001AC0010B5054C237833B9044B13B10448AFF3A5
:1001BC0000800123237010BD5404002000000000B7
:1001CC002836000808B5034B1BB103490348AFF3AD
:1001DC00008008BD000000005804002028360008EC
:1001EC00034613F8012B002AFBD1181A013870476B
:1001FC0053B94AB9002908BF00281CBF4FF0FF3182
:10020C004FF0FF3000F072B9ADF1080C6DE904CE7F
:10021C0000F006F8DDF804E0DDE9022304B07047D5
:10022C002DE9F047089E04468846002B4BD18A42A4
:10023C00154667D9B2FA82F24AB1C2F1200701FA27
:10024C0002F320FA07F7954047EA030894404FEA77
:10025C00154E230CB8FBFEF71FFA85FC0EFB178816
:10026C0043EA084307FB0CF1994209D9EB1807F153
:10027C00FF3080F01B81994240F21881023F2B44E1
:10028C005B1AA4B2B3FBFEF00EFB103344EA03443A
:10029C0000FB0CFCA44509D92C1900F1FF3380F0AC
:1002AC000781A44540F2048102382C4440EA0740FF
:1002BC00A4EB0C0400271EB1D4400023C6E9004374
:1002CC003946BDE8F0878B4209D9002E00F0EB804F
:1002DC000027C6E9000138463946BDE8F087B3FA75
:1002EC0083F7002F47D18B4202D3824200F2FA806F
:1002FC00841A61EB030301209846002EE0D0C6E976
:10030C000048DDE702B9FFDEB2FA82F2002A40F0C3
:10031C008F80491B4FEA154E1FFA85F80127B1FB58
:10032C00FEFC230C0EFB1C1143EA014308FB0CF1F1
:10033C00994207D9EB180CF1FF3002D2994200F226
:10034C00CD808446591AA3B2B1FBFEF00EFB1014FB
:10035C0043EA044408FB00F8A04507D92C1900F126
:10036C00FF3302D2A04500F2B6801846A4EB080475
:10037C0040EA0C409FE7C7F1200CBB4022FA0CFE70
:10038C004EEA030E01FA07F420FA0CF521FA0CF3ED
:10039C004FEA1E482543B3FBF8F92C0C08FB193324
:1003AC001FFA8EFA44EA034309FB0AF49C4202FA50
:1003BC0007F200FA07F10BD91EEB030309F1FF302A
:1003CC0080F087809C4240F28480A9F1020973443A
:1003DC001B1BADB2B3FBF8F008FB103345EA03442A
:1003EC0000FB0AFAA24508D91EEB040400F1FF3306
:1003FC006BD2A24569D90238744440EA0940A0FB8B
:10040C000289A4EB0A044C45C2464B4654D351D046
:10041C00002E69D0B1EB0A0564EB030404FA0CFC62
:10042C00FD40FC404CEA0505C6E90054002747E7AF
:10043C00C2F1200320FA03F7954001FA02F021FAE9
:10044C0003F34FEA154E3843010CB3FBFEF71FFACA
:10045C0085F80EFB173341EA034107FB08F38B4287
:10046C0004FA02F407D9691807F1FF3C2FD28B422A
:10047C002DD9023F2944CB1A81B2B3FBFEF00EFBFF
:10048C00103341EA034100FB08F38B4207D969188A
:10049C0000F1FF3C17D28B4215D902382944C91AF6
:1004AC0040EA07473BE73746304609E70746E7E6A9
:1004BC001846FBE64145ABD2B8EB020A69EB0E02DB
:1004CC0001381346A4E76046E9E7184695E7674606
:1004DC00D1E781467CE702382C4447E7ACF1020CAB
:1004EC002B442FE7384608E73746E9E6704700BF4C
:1004FC0008B50B4B1A6842F400721A601A6842F481
:10050C0080621A601A6842F480721A60032000F04C
:10051C002DF8002002F02EFD02F038FC002008BD62
:10052C00003C0240034A044B11681B780B441360D7
:10053C00704700BFB404002000000020014B186875
:10054C00704700BFB404002038B50446FFF7F6FF2F
:10055C00631C054602D0044B1B781C44FFF7EEFFCE
:10056C00401BA042FAD338BD00000020074AD368D4
:10057C004FF6FF010B40000243F0BF6300F4E06054
:10058C0043F400330343D360704700BF00ED00E039
:10059C00184BDB68C3F3022330B4C3F10705042DF9
:1005AC0003F1040428BF0425062C19D9033B4FF092
:1005BC00FF349C4022EA04044FF0FF32AA4021EAA7
:1005CC00020101FA03F2224312010028D2B20ADB23
:1005DC0000F1604000F5614080F8002330BC7047AA
:1005EC0000242346E8E7044B00F00F0003441A767E
:1005FC0030BC704700ED00E0FCEC00E0002807DBAD
:10060C0000F01F0101234009024A8B4042F82030C0
:10061C00704700BF00E100E000280DDB43092033E8
:10062C000122064900F01F0002FA00F041F82300F5
:10063C00BFF34F8FBFF36F8F704700BF00E100E037
:10064C0090F83530022B03D080234365012070478E
:10065C000268052380F83530136823F0010313601A
:10066C00002070472DE9F04FDFF860C2DFF86082A0
:10067C00D1F800E083B0002503E00135102D00F027
:10068C00A4800123AB400EEA0304A342F5D14E68CB
:10069C0026F0100ABAF1020F00F09A804FEA4509D1
:1006AC000322D0F800B002FA09F2D24306F0030795
:1006BC0002EA0B0B07FA09F70AF1FF3A47EA0B07B4
:1006CC00BAF1010F076040F2A980C7688B683A4005
:1006DC0003FA09F31343C360F300CED5002301934F
:1006EC00D8F8443043F48043C8F84430D8F8443048
:1006FC0025F0030202F1804203F4804302F59C32A0
:10070C00019305F00307019BD2F80890BF000F235B
:10071C00BB4029EA030A674B98422ED003F580634D
:10072C00984200F08E80644B984200F09180634BAD
:10073C00984200F09480624B984200F09780614B95
:10074C00984200F0A180604B984200F0A480DFF842
:10075C008491484500F09180DFF87C91484500F089
:10076C00A180DFF8789148450CBF4FF009094FF094
:10077C000A0909FA07F74AEA070AC2F808A0DCF8DE
:10078C000030E243F70354BF13402343CCF800304E
:10079C00DCF80430B70354BF13402343CCF80430C7
:1007AC00DCF80830F70254BF13402343CCF8083070
:1007BC00DCF80C30B60205F1010554BF134023439D
:1007CC00102DCCF80C307FF45CAF03B0BDE8F08F8B
:1007DC004FEAD50900EB890905F00707D9F8202065
:1007EC00BF004FF00F0B0BFA07FB22EA0B0A0A694A
:1007FC00BA4042EA0A02C9F820204FEA450903220E
:10080C00D0F800A002FA09F2D24306F003070AEA74
:10081C00020A07FA09F747EA0A070760876807EA36
:10082C00020ACF6807FA09F747EA0A078760D0F887
:10083C0004A0C6F300172AEA0303AF401F43476026
:10084C0043E74FF0010909FA07F74AEA070A94E768
:10085C004FF0020909FA07F74AEA070A8DE74FF049
:10086C00030909FA07F74AEA070A86E74FF0040971
:10087C0009FA07F74AEA070A7FE74FF0070909FA6E
:10088C0007F74AEA070A78E74FF0050909FA07F76C
:10089C004AEA070A71E74FF0060909FA07F74AEA2C
:1008AC00070A6AE74FF0080909FA07F74AEA070A44
:1008BC0063E700BF0000024000080240000C024049
:1008CC00001002400014024000180240003C01409D
:1008DC0000380240001C024000200240002402406C
:1008EC000369194214BF01200020704702B90904A2
:1008FC0081617047044A5169014200D1704708B5C3
:10090C00506102F04FFD08BD003C0140002800F092
:10091C0032812DE9F0410368DD0782B004462FD502
:10092C00AC498A6802F00C02042A00F0EA808A685A
:10093C0002F00C02082A00F0E0806368B3F5803FF7
:10094C0000F0E980B3F5A02F00F05481A14D2A6886
:10095C0022F480322A602A6822F480222A60002B3A
:10096C0040F0DE80FFF7EAFD064605E0FFF7E6FD06
:10097C00801B642800F2F2802B689B03F6D423685A
:10098C009F0775D41A0715D56369002B00F0A58055
:10099C00914B904D01221A60FFF7D0FD064605E001
:1009AC00FFF7CCFD801B022800F2D8806B6F9B07F1
:1009BC00F6D5236858073BD5864A136C13F0805341
:1009CC0040F0DB800193136C43F080531364136C81
:1009DC0003F080530193019B0126804D2A68D105B9
:1009EC0040F1AC80A368012B00F0C980052B00F00E
:1009FC000B81784D2A6F22F001022A672A6F22F0B0
:100A0C0004022A67002B40F0BF80FFF797FD41F2EC
:100A1C008837804606E0FFF791FDA0EB0800B8424E
:100A2C0000F29C802B6F9807F5D4002E40F0DC80F0
:100A3C00A269CAB1674DA96801F00C01082948D018
:100A4C00022A674A4FF00001116000F0E780FFF7BF
:100A5C0075FD2C46054604E0FFF770FD401B02288F
:100A6C007CD823689B01F7D4002002B0BDE8F0814C
:100A7C00584A916811F00C0F24D0916801F00C01C8
:100A8C0008291CD0E368002B00F09280554B514D87
:100A9C0001221A60FFF752FD064604E0FFF74EFDF7
:100AAC00801B02285AD82B689807F7D52B68226927
:100ABC0023F0F80343EAC2032B60236862E7526811
:100ACC005602DFD4434A126895074BD5E268012AD7
:100ADC0048D0012002B0BDE8F0813F4A3D4D136083
:100AEC00FFF72CFD064604E0FFF728FD801B0228CB
:100AFC0034D86B6F9F07F7D45BE74A6850027FF5D9
:100B0C001CAF344A126891037FF53AAF6268002A31
:100B1C007FF436AFDDE72F4A136843F4803313605C
:100B2C00FFF70CFD2B4D064604E0FFF707FD801B7D
:100B3C00642813D82B689A03F7D520E72A6842F467
:100B4C0080722A60FFF7FAFC07462B68DA053FF53E
:100B5C0049AFFFF7F3FCC01B0228F6D9032002B003
:100B6C00BDE8F0811B4920690A6822F0F80242EACC
:100B7C00C0020A6006E70120704700262DE7154ADF
:100B8C00136F43F001031367FFF7D8FC114D804638
:100B9C0041F2883705E0FFF7D1FCA0EB0800B84222
:100BAC00DCD82B6F9B07F6D5002E3FF441AF1BE032
:100BBC000C4A084D1360FFF7C1FC064604E0FFF732
:100BCC00BDFC801B0228C9D82B689907F7D4236871
:100BDC00D8E600BF00380240800E4742007000404B
:100BEC006000474200004742234A136C23F08053B5
:100BFC0013641DE7204B1A6842F480221A601A68AD
:100C0C0042F480321A608BE71B4B1A6F42F00402DD
:100C1C001A671A6F42F001021A67B5E7FFF78EFCEC
:100C2C00064604E0FFF78AFC801B022896D82B6846
:100C3C009901F7D4D4E90736D4E90902E16A0E4CDC
:100C4C00334343EA8013520843EA0163013A0B49E8
:100C5C0043EA024301226B600A60FFF76FFC054612
:100C6C0005E0FFF76BFC401B02283FF677AF2368CB
:100C7C009A01F6D5F8E600BF003802406000474202
:100C8C00174908B58B6803F00C03042B1BD0082BF9
:100C9C0017D14A684B6813F4800302F03F0214D159
:100CAC0049681048C1F38811A1FB0001FFF7A0FAB5
:100CBC000B4B5B68C3F3014301335B00B0FBF3F0F8
:100CCC0008BD084808BD084808BD4B680648C3F372
:100CDC008813A3FB00010023FFF78AFAE8E700BFA3
:100CEC00003802400024F40000127A0060B1484A37
:100CFC00136803F00F038B4208D2CBB21370136846
:100D0C0003F00F038B4201D00120704703682DE9DB
:100D1C00F0419D0714D55C0704D53E4CA26842F403
:100D2C00E052A2601A0704D53A4CA26842F4604221
:100D3C00A260384C8568A26822F0F0022A43A260B7
:100D4C00DF0704460D4622D54268012A56D0931E71
:100D5C00012B304B1B6858D9990725D52D4EB368FC
:100D6C0023F003031343B360FFF7E8FB41F288372A
:100D7C00804605E0FFF7E2FBA0EB0800B84242D842
:100D8C00B368626803F00C03B3EB820FF2D1204A14
:100D9C00136803F00F03AB4209D9EBB2137013685D
:100DAC0003F00F03AB4202D00120BDE8F0812368B1
:100DBC005A0706D51749E0688A6822F4E0520243C4
:100DCC008A601B0711D4FFF75BFF124B12499B681B
:100DDC00124AC3F30313CB5C20FA03F30020136015
:100DEC0002F0C8F80020BDE8F0810A4A2169936836
:100DFC0023F4604343EAC1039360E4E7054B1B68AB
:100E0C009E03ABD4D0E70320EDE79801A6D4CBE743
:100E1C00003C024000380240F43600082400002058
:100E2C00044B054A9B680549C3F382230868D35CCD
:100E3C00D8407047003802400437000824000020D6
:100E4C00044B054A9B680549C3F342330868D35CDD
:100E5C00D8407047003802400437000824000020B6
:100E6C000E4B0F2202609A6802F0030242609A68ED
:100E7C0002F0F00282609A6802F4E052C2609B6851
:100E8C00DB0810B403F4E053054C036123685DF8F0
:100E9C00044B03F00F030B60704700BF0038024097
:100EAC00003C02402DE9F04107460D461646984697
:100EBC003C6801E0731C06D1A06835EA0003F9D048
:100ECC000020BDE8F081FFF739FBA0EB080086425B
:100EDC00EED8D7E900315A68B1F5827F22F0E002F2
:100EEC005A6014D0BA6AB2F5005F07D00122002311
:100EFC0087F8512087F850300320E2E71A6822F473
:100F0C0000521A601A6842F400521A60EEE7BA688E
:100F1C00B2F5004F02D0B2F5806FE3D11A6822F01F
:100F2C0040021A60DEE700BF164B30B51B68164D49
:100F3C00A5FB03535B0D4FF47A7505FB03F3456872
:100F4C0083B0B5F5827F0446019307D10CE0019B79
:100F5C002268013B019393681B0602D5019B002B71
:100F6C00F5D1002003B030BD13460A468021FFF7AF
:100F7C0099FF0028F5D0636D43F0200363650320CF
:100F8C00F0E700BF24000020819F5E1600283BD0B4
:100F9C0090F85120002370B502F0FF0104468362E3
:100FAC0062B31846D4E90135D4E903212B4313432A
:100FBC006269E569266A0B431343A26921682B43D6
:100FCC00022584F85150334302F400750E682B430C
:100FDC00120C656A02F0040203432A4326F0400611
:100FEC000E600B604A60CB69002223F4006301257C
:100FFC00CB611046626584F8515070BD80F850107A
:10100C0001F0E0FEA06ACDE7012070472DE9F04128
:10101C0090F85040012C82B073D01D46012380F80B
:10102C005030044617468846FFF788FA064694F86F
:10103C005100C0B2012809D002200122002384F8FB
:10104C00512084F8503002B0BDE8F081B8F1000FA7
:10105C00F3D0002FF1D0A268C4F830800023032114
:10106C00B2F5004F84F85110A3636365A387C4E9FC
:10107C001033E786A786E387236803D11A6842F406
:10108C0080421A601A6852063FD5E2686168B2F570
:10109C00006F4BD000293DD198F800201A73E38ED5
:1010AC00226B013B9BB20132E3862263E38E9BB23F
:1010BC008BB123689A6892072FD5226B12781A731A
:1010CC00E38E216B013B9BB2E386E38E01319BB235
:1010DC002163002BEDD1324629462046FFF724FF31
:1010EC0008B120236365A36833B922680193D368E0
:1010FC00019393680193019B606D003018BF012030
:10110C009BE7022002B0BDE8F0811A6842F0400271
:10111C001A60BAE7012FC9D1BEE7FFF70FFA801B9F
:10112C00A842C3D36B1CC1D0032086E711B3012F97
:10113C0020D0E38E9BB2002BCDD023689A68900709
:10114C0010D5226B32F8021BD960E38E2263013B6F
:10115C009BB2E386E38E9BB2002BBCD023689A68CB
:10116C009007EED4FFF7EAF9801BA842E1D3691C83
:10117C00DFD0D9E7414631F8022BDA60E38E2163E8
:10118C00013B9BB2E386D4E790F85100704700BF57
:10119C00F0B4046A8F680E68144D24F001040462E4
:1011AC00036A4468826923F0020322F07302A842A6
:1011BC0043EA070342EA06020AD005F58065A84215
:1011CC0006D0496844608261F0BC41630362704799
:1011DC00CD6823F008032B43D1E9055624F4407461
:1011EC00354323F004032C43EBE700BF0000014020
:1011FC00F0B4046A8F680E68154D24F48074046290
:10120C00036A4468C26923F4007322F07302A84293
:10121C0043EA072342EA06020AD005F58065A84294
:10122C0006D049684460C261F0BCC1630362704778
:10123C00CD6823F4006343EA0523D1E9055624F471
:10124C004054354323F4806344EA0514E9E700BFB6
:10125C0000000140F0B4046A8F680E68104D24F44D
:10126C0080540462036A4468C26923F4005322F474
:10127C00E642A84243EA073342EA06220AD005F5C1
:10128C008065A84206D049684460C261F0BC016424
:10129C00036270474D6924F4804444EA8514F2E7F4
:1012AC0000000140026870B49368D1E9004023F05B
:1012BC007003034323F007032343502893603ED06D
:1012CC0026D960280FD0702836D1D1E9024308699D
:1012DC009168234343EA002321F47F410B4393603D
:1012EC00002070BC7047106A8C680D6920F01000EB
:1012FC0010629169136A21F4704123F0A00341EA52
:10130C00053143EA041391610020136270BC7047ED
:10131C00402811D1052C26D0146A106A0D6920F0D2
:10132C0001001062936923F0F00343EA0513936103
:10133C000020146270BC7047002070BC7047146AA7
:10134C00156A88680E6925F001051562936924F009
:10135C000A0123F0F003014343EA061393610020D2
:10136C00116270BC70470120BBE700BF0368DA68EC
:10137C0042F00102DA609A6802F00702062A03D0F2
:10138C001A6842F001021A6000207047704700BFD3
:10139C0038B590F83C30012B1ED00125022380F883
:1013AC003C5080F83D300446FFF77CFF68B9236859
:1013BC00DA6822F04002DA60DA6822F48042DA60FD
:1013CC0084F83D5084F83C0038BD002384F83D502F
:1013DC00284684F83C3038BD022038BD704700BF29
:1013EC00704700BF704700BF704700BF03681A69A1
:1013FC00910710B5044602D5DA6892075FD41A69D2
:10140C00500702D5DA68510746D41A69120702D57B
:10141C00DA6810072ED41A69D20602D5DA68D0061B
:10142C0018D41A69D10702D5DA68D2075DD41A69C3
:10143C00100602D5DA6811065FD41A69520602D575
:10144C00DA68500661D41A69910602D5DA689206F8
:10145C0043D410BD6FF010021A61DB69082213F43B
:10146C00407F2277204664D0FFF7BAFF0022236822
:10147C002277D6E76FF008021A61DB69042299071C
:10148C002277204652D1FFF7A9FF2046FFF7AAFF8B
:10149C00002223682277BEE76FF004021A619B6971
:1014AC00022213F4407F227720463CD1FFF796FFAF
:1014BC002046FFF797FF002223682277A5E76FF0FD
:1014CC0002021A619B6901229B07027725D0FFF764
:1014DC0087FF00222368227791E76FF020022046D5
:1014EC001A61BDE8104000F083B96FF001021A6177
:1014FC00204601F041FC236899E76FF080021A61E5
:10150C00204600F077F9236897E76FF040021A61E4
:10151C002046FFF769FF236895E7FFF75FFF20463A
:10152C00FFF760FFD5E7FFF75BFFC4E7FFF758FF56
:10153C00AEE7FFF753FF2046FFF754FF96E700BFD7
:10154C00F0B4364E03684D698C680A68B04255D0C9
:10155C00B0F1804F29D0A6F57C46B04237D006F5C5
:10156C008066B04233D006F58066B0422FD006F5C7
:10157C007846B0422BD006F57056B04213D006F523
:10158C008066B0420FD006F58066B0420BD0A6F54F
:10159C009836B04207D006F58066B04203D006F507
:1015AC008066B04209D1C96804E04E68C96823F06E
:1015BC007003334323F440730B4323F080032B431A
:1015CC000360C462826201234361F0BC70474E68C1
:1015DC00134F23F070033343CE6823F4407333432B
:1015EC0023F080032B43B8420360C4628262EAD1C9
:1015FC000B69036301234361F0BC70474F68CE68ED
:10160C0023F070033B4323F44073334323F08003F4
:10161C002B430360C4628262EAE700BF0000014012
:10162C0000040140B8B190F83D3010B503F0FF0252
:10163C0004465BB1022384F83D302068211DFFF77E
:10164C007FFF012384F83D30002010BD80F83C2042
:10165C0001F004FCEEE70120704700BFB8B190F830
:10166C003D3010B503F0FF0204465BB1022384F851
:10167C003D302068211DFFF763FF012384F83D30C6
:10168C00002010BD80F83C20FFF780FEEEE7012023
:10169C00704700BFF0B4046A8F680E68154D24F0D3
:1016AC0010040462036A4468826923F0200322F464
:1016BC00E642A84243EA071342EA06220AD005F59D
:1016CC008065A84206D0496844608261F0BC8163A1
:1016DC0003627047CD6823F0800343EA0513D1E918
:1016EC00055624F44064354323F0400344EA850452
:1016FC00E9E700BF0000014090F83C30012B28D0F6
:10170C0010B504460223012084F83C0084F83D30D7
:10171C000C2A0BD8DFE802F0070A0A0A150A0A0A93
:10172C00190A0A0A11002068FFF732FD0123002074
:10173C0084F83D3084F83C0010BD2068FFF78AFD2A
:10174C00F4E72068FFF7A6FFF0E72068FFF750FDED
:10175C00ECE70220704700BF90F83C20012A1AD019
:10176C0070B40222046880F83D20D1E9006503467C
:10177C006068A26820F0700122F0800231432A4395
:10178C000126002561602846A26083F83D6083F83D
:10179C003C5070BC70470220704700BF90F83C3042
:1017AC00012B21D030B4D1E90253D1E9002423F428
:1017BC0040732B4323F48063234323F40063D1E968
:1017CC000454134323F480532B4323F40053C9696B
:1017DC000268234323F480430B430021536430BC41
:1017EC0080F83C100846704702231846704700BF2B
:1017FC00704700BF704700BF026811692DE9F843BC
:10180C00C568836821F4405104462943006911617D
:10181C00D16865690343E06921F416412B4321F03B
:10182C000C0103430B43D3605369A16923F4407348
:10183C000B43B0F5004F53619B4B00F09A809A42DA
:10184C0059D003F580639A4255D0FFF7E9FA974FC8
:10185C00636800EB800000EB80009B00B0FBF3F3AF
:10186C00A7FB03235B091D01FFF7DAFA666800EB9F
:10187C00800000EB8000B600B0FBF6F6FFF7D0FA64
:10188C00636800EB800000EB80009B00B0FBF3F37F
:10189C00A7FB03235B094FF0640909FB13631B01CE
:1018AC003233A7FB03235B0903F0F006FFF7B8FA0A
:1018BC00626800EB800000EB80009300B0FBF3F853
:1018CC00FFF7AEFAD4E9002300EB80009B0000EB9D
:1018DC008000B0FBF3F0A7FB0030400909FB10833C
:1018EC001B013233A7FB0313C3F3431333432B44C2
:1018FC009360BDE8F883FFF7A3FA6C4F636800EBC5
:10190C00800000EB80009B00B0FBF3F3A7FB0323EC
:10191C005B091D01FFF794FA666800EB800000EB91
:10192C008000B600B0FBF6F6FFF78AFA636800EBAE
:10193C00800000EB80009B00B0FBF3F3A7FB0323BC
:10194C004FF064095B0909FB13631B013233A7FBDE
:10195C0003235B0903F0F006FFF772FA626800EBF1
:10196C008000930000EB8000B0FBF3F8FFF768FAFF
:10197C00A8E79A4259D003F580639A4255D0FFF7F5
:10198C004FFA4A4F636800EB800000EB80005B006D
:10199C00B0FBF3F3A7FB03235B091E01FFF740FA2F
:1019AC00656800EB800000EB80006D00B0FBF5F586
:1019BC00FFF736FA636800EB800000EB80005B00F9
:1019CC00B0FBF3F3A7FB03235B094FF0640909FB9E
:1019DC001353DB003233A7FB03231B0903F4F87505
:1019EC00FFF71EFA626800EB800000EB80005300EA
:1019FC00B0FBF3F8FFF714FAD4E9002300EB8000F6
:101A0C0000EB80005B00B0FBF3F3A7FB03135B0957
:101A1C0009FB1383DB003233A7FB0313C3F342131D
:101A2C0033442B449360BDE8F883FFF709FA1F4F4A
:101A3C00636800EB800000EB80005B00B0FBF3F30D
:101A4C00A7FB03235B091E01FFF7FAF9656800EB9E
:101A5C00800000EB80006D00B0FBF5F5FFF7F0F9AE
:101A6C00636800EB800000EB80005B00B0FBF3F3DD
:101A7C00A7FB03234FF064095B0909FB1353DB003D
:101A8C003233A7FB03231B0903F4F875FFF7D8F9CE
:101A9C00626800EB8000530000EB8000B0FBF3F8B1
:101AAC00FFF7CEF9A8E700BF001001401F85EB51EE
:101ABC002DE9F04107460E4690461D463C6801E074
:101ACC006B1C06D1206836EA0003F9D10020BDE872
:101ADC00F08135B1FEF732FDA0EB08008542EDD266
:101AEC003C68E36823F4D073E3606369202223F03D
:101AFC00010300216361032087F8392087F838102F
:101B0C0087F83A20E3E700BF60B338B590F8393076
:101B1C00044603F0FF0203B32268242384F839300F
:101B2C00D36823F40053D3602046FFF765FE236887
:101B3C001A6922F490421A615A6922F02A025A61F7
:101B4C00DA680025202142F40052DA602846E56369
:101B5C0084F8391084F83A1038BD80F8382001F038
:101B6C00C7F9D9E7012070472DE9F0430F4690F8EB
:101B7C003910202983B02DD187B3019272B39846C6
:101B8C0090F83830012B044624D00023C363012184
:101B9C00212380F8381080F83930FEF7CFFC019AF9
:101BAC00A2848146E284E58CADB243464A4680214C
:101BBC00204655B3E58CA668013DADB2B6F5805F05
:101BCC00E5840FD0FFF774FFE8B923683A785A60C0
:101BDC000137E8E7022003B0BDE8F083012003B031
:101BEC00BDE8F08343464A4680212046FFF760FF5C
:101BFC0048B93B8821682269C3F308034B60002A6B
:101C0C00E6D10237CFE70320E5E74021FFF750FF8D
:101C1C000028F8D1202384F8380084F83930DAE72A
:101C2C00704700BF704700BF10B584680169836AB4
:101C3C000268B4F5805F20D05C1C52688462C9B91C
:101C4C001A70C38D013B9BB2C3858BB90268D168F6
:101C5C0021F02001D160D16821F48071D1605169EB
:101C6C00202421F00101516180F83A40FFF7DAFF9E
:101C7C00002010BD02F07F02E2E7526829B9C2F3DE
:101C8C00080223F8022B8362DBE7D2B223F8012B84
:101C9C008362D6E7704700BF03681A6870B51607F1
:101CAC00DD68596904464AD011F001011E464FD037
:101CBC00D00705D5EB0503D5E36B43F00103E363D4
:101CCC00500702F0020375D561B1E16B41F00201DE
:101CDC00E16302F00801002B71D119B1E36B43F001
:101CEC000803E363E36B002B31D0900601D5A90602
:101CFC0071D47569E26B120702D415F0400577D0E8
:101D0C00F36823F49073F3607369202223F00103CA
:101D1C00736184F83A2073695B0658D57369606BFC
:101D2C0023F040037361002851D03A4B0365FEF752
:101D3C0087FC60B1606BBDE87040036D184791067D
:101D4C0009D5AE0607D590F83A30222B4CD070BD91
:101D5C0015F4907FACD116060ED45106F7D56A0651
:101D6C00F5D5DA68202122F04002DA60204684F8AA
:101D7C003910FFF755FF70BD2806EED594F83920C1
:101D8C00212AE4D1A168226AB1F5805F35D0511CBB
:101D9C00216212785A60E28C013A92B2E284002AF3
:101DAC00D5D1DA6822F08002DA60DA6842F04002BB
:101DBC00DA6070BD43B1002994D002F00801E36BE6
:101DCC0043F00403E36388E713078BD585E72046CC
:101DDC00FFF760FF70BD94F83A30222B89D1204672
:101DEC00FFF722FF266884E7BDE87040FFF71CBFB1
:101DFC002046FFF74FFFE56370BD11882069C1F3E2
:101E0C000801596010B902322262C4E70132226221
:101E1C00C1E700BF251E000808B5836B0022DA85D8
:101E2C001846DA84FFF736FF08BD00BF00B5C0B214
:101E3C0083B0E9B160F03F007F298DF80400C8B28F
:101E4C000DD960F07F00C9098DF805008DF80610DA
:101E5C00032001A901F038F903B05DF804FB8DF8FB
:101E6C00050001A9022001F02FF903B05DF804FB75
:101E7C0060F07F008DF8040001A9012001F024F925
:101E8C0003B05DF804FB00BF08B51318B3F5806F01
:101E9C0007DC0B461146821E0920FFF7C7FF002006
:101EAC0008BD4FF0FF3008BD0E4B1B6830B5DB682A
:101EBC0043EAC232104383B040EA8151080A0D0C48
:101ECC000C0E8DF804108DF8050001AB04220021D6
:101EDC0008208DF806508DF80740FFF7A7FF03B0D8
:101EEC0030BD00BF0800002000B5C0B283B0E9B11E
:101EFC0040F040007F298DF80400C8B20DD960F085
:101F0C007F00C9098DF805008DF80610032001A982
:101F1C0001F010F903B05DF804FB8DF8050001A980
:101F2C00022001F007F903B05DF804FB8DF8040002
:101F3C0001A9012001F0FEF803B05DF804FB00BF1D
:101F4C0000B5002183B0084601AB0422FFF7CCFF9B
:101F5C000DF107030DF10301002013F801298B4249
:101F6C0002EB0020F9D103B05DF804FB00B583B09F
:101F7C0089B280B201AB0422FFF7B6FF0DF1070363
:101F8C000DF10301002013F801298B4202EB002014
:101F9C00F9D103B05DF804FB70B582B0160A150CCC
:101FAC00140E8DF8042089B280B201AB04228DF896
:101FBC0005608DF806508DF80740FFF737FF02B02B
:101FCC0070BD00BF70B582B00446060A01AB022298
:101FDC0004212D2002AD8DF804408DF80560FFF72B
:101FEC0025FF032305F8053D01222B4606212D2054
:101FFC00FFF71CFF02AB002403F8064D012206215B
:10200C002D20FFF713FF01AB2D2004220A21FFF72F
:10201C006BFF20460DF1070313F80129AB4202EBCD
:10202C000020F9D102B070BD00B583B002AB002224
:10203C0003F8012D022101222C20FFF7F7FE02AB41
:10204C00022103F8021D01222C20FFF7EFFE03B042
:10205C005DF804FB10B582B002AB6D2203F8052DC0
:10206C000446012240F606012E20FFF7DFFE02ABEC
:10207C005CB941F2076223F8042D41F606010222F5
:10208C002E20FFF7D3FE02B010BD40F20762F2E73C
:10209C002DE9F0430678D24B4279D24D477833F88C
:1020AC001280C379042E18BFA6F1070904462868CC
:1020BC0007F1FF3718BFB9FA89F985B0FFB214BF21
:1020CC004FEA59194FF001090169002B40F04E817C
:1020DC0041F480014FEAD808227A8272130403F487
:1020EC00403321F44032134303610422180A190CC3
:1020FC004FEA136C8DF80C308DF80D0003AB1046C5
:10210C008DF80E1000218DF80FC0FFF78FFE4FEAEF
:10211C00182C03AB022242F604012E208DF80DC0C0
:10212C008DF80C80FFF782FE3846FFF793FFAE4A1E
:10213C00AE4B12F8068053F828308DF80C30190A83
:10214C00180C4FEA136C042203AB8DF80D108DF8AC
:10215C000E0007212B208DF80FC0FFF767FEA44A55
:10216C0004AB12F8082003F8082D0B2101222B20B8
:10217C00FFF75CFE9F4A04AB12F8092003F8092D07
:10218C000B2101222820FFF751FE9B4B53F82830DE
:10219C008DF80C304FEA134E4FEA136C4FEA1328AC
:1021AC00042203AB0C2128208DF80EE08DF80FC013
:1021BC008DF80D80FFF73AFEE279A3798F4903EB96
:1021CC004203022231F813308DF80C304FEA132CF5
:1021DC00114603AB27208DF80DC0FFF727FE884B67
:1021EC0033F817308DF80C304FEA132C022203AB66
:1021FC00042127208DF80DC0FFF718FEE379002B82
:10220C0000F0D280A378042B00F0B3804FF0200CA8
:10221C0003AB022206212720ADF80CC0FFF706FE07
:10222C0004AB282203F8062D262101222720FFF7D4
:10223C00FDFDE278734902EB870203AB51F82220D3
:10224C008DF80C20110A100C4FEA126C8DF80D1041
:10225C008DF80E000422082127208DF80FC0FFF7FF
:10226C00E5FD6389002B00F09880DAB24FEA132C5D
:10227C00DFF898818DF80C2003AB02222021272057
:10228C008DF80DC0FFF7D2FDD8F800308DF80C306A
:10229C00190A180C08EB47074FEA136C042203AB1E
:1022AC008DF80D108DF80E000C2123208DF80FC029
:1022BC00FFF7BCFDBA888DF80C20170A042103AB7C
:1022CC00022223208DF80D70FFF7B0FDA1790029B3
:1022DC0075D10A46677894F805C0207906F00F038B
:1022EC00BF0407F4402743EACC6380053B43360127
:1022FC0000F0F860F6B21843304308430026104350
:10230C004FEA104C070E314603AB8DF80C0004223B
:10231C001F208DF80EC08DF80F708DF80D60FFF733
:10232C0085FD6078A278E379296802435B0343EA70
:10233C000243CB601D0A1C0C314603AB042208205F
:10234C008DF80E408DF80C608DF80F608DF80D50E7
:10235C004224FFF76BFD314603AB01220D208DF8B3
:10236C000C40FFF763FD05B0BDE8F08321F480015C
:10237C00B2E64FF0100803AB022206212720ADF87D
:10238C000C80FFF753FD0DEB0803012203F8078DBA
:10239C0026212720FFF74AFD4BE741F241036381D9
:1023AC004FF0100C412263E74FF0640C03AB022298
:1023BC0006212720ADF80CC0FFF738FD39E712498C
:1023CC00E27904AB8A5C03F8052D0021012221205F
:1023DC00FFF72CFD4FF400314FF440127AE700BFA9
:1023EC004036000808000020EC360008BC36000817
:1023FC00B4360008B0360008D43600089836000809
:10240C009436000874360008A4360008A836000874
:10241C0030B583B004466B46362501A90222012053
:10242C008DF8045000F086FE0E2C12D8DFE804F074
:10243C002C0835111111113E4D11115A61682700EC
:10244C009DF80130002223F001038DF801308DF846
:10245C00002001226B4601A91046B6248DF80440D9
:10246C0000F032FE4FF4FB7401A90DF101030122BF
:10247C000220ADF8044000F027FE03B030BD40F25E
:10248C000133ADF80030E4E79DF8003023F003038E
:10249C0043F001038DF80030DBE79DF8003023F0AA
:1024AC00030343F002038DF80030D2E79DF80030AF
:1024BC009DF8012023F04C0343F0480362F07F02A7
:1024CC008DF800308DF80120C3E79DF800209DF8B1
:1024DC00013022F04C0203F07F038DF800208DF8C0
:1024EC000130B6E79DF8013043F002038DF801305E
:1024FC00AFE79DF8013023F002038DF80130A8E717
:10250C009DF8003023F0300343F020038DF80030A9
:10251C009FE700BF00B50E2083B0FFF779FF02AB39
:10252C004FF4004223F8042D062102222D20FFF740
:10253C007DFC012000F0C6FD0120FFF769FF03B010
:10254C005DF804FB00B5002083B0FFF761FF02AB20
:10255C00002223F8042D042102223620FFF766FC0A
:10256C0003B05DF804FB00BF10B510F0020282B09E
:10257C0004D01D4B1B6801225A75802210F00104F7
:10258C0002AB19D042F0060203F8062D00210122FD
:10259C000D20FFF74BFC0F2001AB02220321FFF7AC
:1025AC00A3FC9DF805409DF8040000EB042010F4FA
:1025BC0081600DD102B010BD42F0020203F8042D6F
:1025CC00214601220D20FFF731FC204602B010BD40
:1025DC0002AB402203F8052D0D2001220021FFF74C
:1025EC0025FC4FF0FF30E5E70800002030B583B044
:1025FC0002AD0024FFF7A6FF25F8044D21462B461B
:10260C0002222C20FFF712FC2B46012206212C2043
:10261C008DF80440FFF70AFCFFF706FD02AB012220
:10262C0003F8054D03213620FFF700FC012000F0D4
:10263C0049FD02ABF02203F8062D032101223620BE
:10264C00FFF7F4FB024B1B685C7503B030BD00BF99
:10265C00080000202DE9F047A34F3B6800255D6181
:10266C00C3E90A55C3E90C5582B00446FFF768FC70
:10267C009E4B984240F0358114F0020900F0A38083
:10268C0014F0F80600F08A8002AB042203F8082D3F
:10269C00294601222420FFF7C9FB0DF1040843460B
:1026AC000422302128200DF10705FFF71DFC0DF148
:1026BC0003062B46002213F801199E4201EB02225D
:1026CC00F9D1B2F1883F04D03A68D38A43F48053ED
:1026DC00D38204F00A030A2B00F0F980D7F800A08B
:1026EC0000238AF80B3014F0100340F09E80CAF8D7
:1026FC00003014F0200340F0A380CAF8043014F02A
:10270C00400340F0A6803A68137214F0800340F046
:10271C00A9803A685372B9F1000F4CD1E10740F12E
:10272C00AC80FFF7F7FE3A68D38A43F40063D38298
:10273C000120FFF76DFE0024334601220A212C20D4
:10274C008DF80340FFF772FB0422214643461046E6
:10275C00D7F80090FFF7C8FB21462B4613F8012948
:10276C00B34202EB0121F9D13C68C9F81010628A1E
:10277C0002F003024346A272002104220820FFF754
:10278C00B3FB2B46002213F801199E4201EB0222E7
:10279C00F9D1E260002002B0BDE8F0873046FFF7C7
:1027AC0037FE02AB042203F8082D31460122242007
:1027BC00FFF73CFB71E76207BAD43A68D38A43F45B
:1027CC000063D382B4E7FFF711FF4846FFF720FE02
:1027DC0002AB042503F8085D012249462420FFF7CB
:1027EC0025FB2846FFF7EEFB10F0FF0F60D11E20F3
:1027FC00FFF7E8FB3A6883B2190ADB06D17237D1CE
:10280C00702002AB012203F8060D0E212B20FFF7DE
:10281C000DFB14F01003D7F800A00DF104080DF116
:10282C0007050DF103063FF462AF0620FFF7CAFB64
:10283C0014F02003CAF80000D7F800A03FF45DAFF5
:10284C000720FFF7BFFB14F04003CAF804003FF465
:10285C005AAF0820FFF7B6FB3B68187214F08003E0
:10286C003FF457AF0920FFF7ADFB3B68587252E7B6
:10287C0000F01F0040F06000C3E743460222052130
:10288C003620FFF731FB9DF805209DF804304FF6FC
:10289C00FF5003EB02231840040A8DF80400434652
:1028AC000222052136208DF80540FFF7BFFA3FE7DD
:1028BC0002AB022203F8072D122101222D20FFF773
:1028CC00B5FA3A68D38A43F48053D3828FE71E203B
:1028DC00FFF778FBD7F800A0C0F307208AF80B00AD
:1028EC0001E74FF0FF3056E7080000203001CADE48
:1028FC0008B51C4800F0AAFD00F0DAFC00F03AFD27
:10290C000020FFF7A7FE013027D000F03FFD16484E
:10291C000446FFF7BDFB04F10C05002229460C20F0
:10292C00FFF7B2FA00220C201146FFF7BDFA002087
:10293C00FFF71AFE00210F20FFF718FB0306F9D54D
:10294C00802200210F20FFF727FB4FF47A7000F054
:10295C0085FC637B01336373DFE7044800F076FD8D
:10296C00FEE700BF0C3700080C0000201C370008E5
:10297C0070B5002494B0CDE90A44CDE90C44CDE9FE
:10298C000444CDE906441E4A01940394116C1D4B7A
:10299C0041F080511164126C02F080520192019A44
:1029AC0002941A6842F440421A601B6803F44043D4
:1029BC00029301214FF4A0224FF4800302250298C8
:1029CC000891099208214FF490720F9308A80623DE
:1029DC001091119213930E9512950F26FDF796FFF9
:1029EC004FF4A0524FF4805303A80421049505948E
:1029FC000396CDE90623FEF779F914B070BD00BF3C
:102A0C0000380240007000402DE9804800249FB03F
:102A1C00FDF76EFDFFF7ACFFCDE91644CDE9184488
:102A2C00BF4B00941A941A6BBE48DFF82CB3BE4D02
:102A3C0042F004021A631A6B02F004020092009A2C
:102A4C0001941A6B42F080021A631A6B02F0800236
:102A5C000192019A02941A6B42F001021A631A6BEA
:102A6C0002F001020292029A03941A6B42F00202E3
:102A7C001A631A6B02F002020392039A04941A6B03
:102A8C0042F020021A631A6B02F020020492049A9C
:102A9C0005941A6B42F040021A631A6B02F0400262
:102AAC000592059A06941A6B42F010021A631A6B7F
:102ABC0002F010020692069A07941A6B42F0080272
:102ACC001A631B6B03F008030793224644F281013F
:102ADC00079BFDF70BFF22464FF400519348FDF77F
:102AEC0005FF01224FF480419148FDF7FFFE22467D
:102AFC0040219048FDF7FAFE4FF4005816A98E4875
:102B0C001894022603274FF00B09CDE9168BFDF71D
:102B1C00A9FD322316A988481894CDE91636CDE9BB
:102B2C001979FDF79FFD062316A9844816934FF0DB
:102B3C00010ACDE91764CDE91979FDF793FD44F24B
:102B4C00810316A977481693CDF85CA0CDE91844FB
:102B5C00FDF788FD4FF4805316A97448CDF85CB08E
:102B6C0018961693FDF77EFD112316A96F4817933F
:102B7C00CDF85880CDE91844FDF774FD4FF440436F
:102B8C0016A96A481693CDE91744FDF76BFD44F27C
:102B9C00832316A967481693CDE91744FDF762FD08
:102BAC004FF4285316A966481693CDE91744FDF740
:102BBC0059FD16A95B48CDF86890CDE91686CDE98C
:102BCC001847FDF74FFD4FF4804316A9584816934C
:102BDC00CDE917A41994FDF745FD402316A95548D6
:102BEC001693CDE917A419944FF00A0AFDF73AFD94
:102BFC004FF4E85316A951481693CDE917644FF4D6
:102C0C00007B1997CDF868A0FDF72CFD16A94B4851
:102C1C00CDF858B0CDE91744FDF724FD4FF42053FF
:102C2C0016A944481693CDE91764CDF86890199706
:102C3C00FDF718FD224621462820FDF7A9FC282087
:102C4C00FDF7DCFC3F4B404EC3F818B04FF48271DB
:102C5C0010221846C3E90061DA61C3E90244C3E9F2
:102C6C000444C3E90844C3E90A4AFEF78FF937491B
:102C7C00374EAC600C234FF4E1322846C5E9001204
:102C8C006B61C5E90344C5E90644FEF73DFF2146E7
:102C9C00202216A80A9408940F94CDE90B44CDE990
:102CAC000D440994CDE91044CDE91244CDE9144406
:102CBC0000F030FC4FF6FF72264931604FF4807300
:102CCC003046C6E903237460B460C6E90544FEF7D8
:102CDC00A9FC3046FEF7C2FC06230AA93046CDE912
:102CEC000A34FEF755FB08A93046CDE90844FEF737
:102CFC0033FD22460FA93046CDE90F44CDE91144EE
:102D0C00CDE913441594FEF7F7FC16A93046CDE92E
:102D1C001644CDE91844CDE91A481D941EE000BFB5
:102D2C000038024000040240F80400200014024065
:102D3C00000C024000180240000802400000024053
:102D4C0000100240380500200030014000480040CF
:102D5C00B80400200004014000001110FEF71EFD15
:102D6C00304600F09BF8204600F0C6FA284600F0EA
:102D7C0067FBFFF7BDFDFEE70268034B9A4200D0EC
:102D8C007047FDF7CFBB00BF0010004082B00C4B6A
:102D9C00002100915A6C42F480425A645A6C02F43D
:102DAC0080420092009A01911A6C42F080521A648F
:102DBC001B6C03F080530193019B02B0704700BF62
:102DCC0000380240F0B50268214B89B000249A42C9
:102DDC00CDE90344CDE90544079401D009B0F0BD19
:102DEC0003F5843300945A6C1A4842F480525A64A6
:102DFC005A6C02F480520092009A01941A6B42F0C1
:102E0C0001021A631A6B02F001020192019A0294F8
:102E1C001A6B42F002021A631B6B03F0020302935B
:102E2C00022760230326052503A9029ACDE903375F
:102E3C00CDE90665FDF716FC202303A90648049787
:102E4C00CDE9066505940393FDF70CFC09B0F0BDC4
:102E5C0000300140000002400004024002680E4BAA
:102E6C009A4200D0704700B583B0002203F59A3324
:102E7C000192596C41F0020159645B6C03F002033E
:102E8C00019311462E20019BFDF782FB2E2003B0EF
:102E9C005DF804EBFDF7B2BB0004014030B50168EE
:102EAC00114A87B000239142CDE90133CDE90333B8
:102EBC00059301D007B030BD02F59A320093136B25
:102ECC000A4843F004031363136B03F004030093E9
:102EDC000222032301A94024009D0593CDE9014260
:102EEC00FDF7C0FB07B030BD0004014000080240F4
:102EFC0070B502681D4B88B000249A42CDE903449A
:102F0C00CDE90544079401D008B070BD03F5F83342
:102F1C0001941A6C164842F480221A641A6C02F45A
:102F2C0080220192019A02941A6B42F008021A63F1
:102F3C001B6B03F0080302934FF44072022303A9A6
:102F4C00039204930322072301250793CDE905522D
:102F5C00029EFDF787FB224621462720FDF718FB32
:102F6C002720FDF74BFB08B070BD00BF00480040A8
:102F7C00000C024030B5014689B000223620FDF726
:102F8C0007FB3620FDF73AFB0025164B02951A6C11
:102F9C00154C42F010021A641B6C03F0100301A9CB
:102FAC00029303A8029BFDF75BFFFDF739FF0F4A65
:102FBC000F4925614300A2FB03239B0C013B40F20C
:102FCC00E7322046C4E901352160E260FEF72AFBB6
:102FDC0010B1012009B030BD2046FEF7C7F909B089
:102FEC0030BD00BF003802405406002083DE1B4376
:102FFC0000100040704700BFFEE700BFFEE700BFB7
:10300C00FEE700BFFEE700BF704700BF704700BF80
:10301C00704700BF704700BF0148FEF73DBE00BFC0
:10302C00F804002008B54FF48050FDF763FC4FF412
:10303C000050BDE80840FDF75DBC00BF0148FEF73D
:10304C00D5B900BFB80400200148FEF7CFB900BFC6
:10305C00540600201049114BD1F8882042F470021C
:10306C0010B4C1F888201A680D4C002042F00102FF
:10307C001A6098601A6822F0847222F480321A6006
:10308C005C601A684FF0006422F480221A60D860E9
:10309C008C605DF8044B704700ED00E00038024096
:1030AC001030002400B583B000F0B6F918B10190CF
:1030BC0000F0A2F9019803B05DF804FB00B9704769
:1030CC0000F0A2B900F0CAB82DE9F0478246894653
:1030DC0090461F46FFF7E6FF144D06462846FEF7BE
:1030EC0053F801280446F9D100224FF480411048CE
:1030FC00FDF7FCFB524649464FF0FF330B48FDF7FA
:10310C0085FF4FF0FF331FFA88F239460748FDF769
:10311C007DFF22464FF480410548FDF7E7FB304622
:10312C00FFF7CCFF0020BDE8F08700BF380500207A
:10313C00000C02402DE9F84380460C4617461D460C
:10314C00FFF7B0FFDFF8789006464846FEF71CF80C
:10315C000128FAD100224FF480411848FDF7C6FB34
:10316C00B8F1000F0CD0DFF85890A0440122214692
:10317C004FF0FF3314444846FDF748FF4445F5D162
:10318C007FB10F4CE919002023689A689707FCD58A
:10319C00D8609A68D207FCD5DB6805F8013B8D42F4
:1031AC00F2D101224FF480410448FDF79FFB3046D9
:1031BC00FFF784FF0020BDE8F88300BF000C02403D
:1031CC0038050020002807DB00F01F01012340090F
:1031DC00024A8B4042F82030704700BF00E100E00B
:1031EC0000280DDB430920330122064900F01F00A3
:1031FC0002FA00F041F82300BFF34F8FBFF36F8F3B
:10320C00704700BF00E100E080B485B000AF78608B
:10321C000023FB6012E00023BB6004E000BF00BF92
:10322C00BB680133BB60BB68012BD4BF01230023F7
:10323C00DBB2002BF2D1FB680133FB60FB687A68D0
:10324C009A428CBF01230023DBB2002BE3D100BFD9
:10325C001437BD465DF8047B704700BF80B582B063
:10326C0000AF78607868FDF76FF900BF0837BD468E
:10327C0080BD00BF80B483B000AF78600B4A7B6820
:10328C005B0952F823207B6803F01F0322FA03F337
:10329C0003F00103002B14BF01230023DBB21846FB
:1032AC000C37BD465DF8047B704700BF00E100E0C1
:1032BC0080B586B000AF4FF400537B601123BB6028
:1032CC0000233B613B1D19460A48FDF7CBF9002250
:1032DC004FF400510748FDF709FB0120FFF794FF5D
:1032EC00002000F009F80220FFF7B8FF00BF1837E4
:1032FC00BD4680BD0014024080B588B000AF786038
:10330C007B68002B15D04FF40053FB60174B3B61CF
:10331C0000237B6107F10C0319461548FDF7A2F950
:10332C000620FDF76BF9002205210620FDF730F988
:10333C0017E00620FDF770F94FF40053FB601123E2
:10334C003B6100237B610223BB6107F10C0319462F
:10335C000748FDF787F901224FF400510448FDF7A7
:10336C00C5FA00BF2037BD4680BD00BF000011105C
:10337C000014024080B500AF034B2022DA610248F2
:10338C00FDF704FE00BF80BD3805002080B500AFFE
:10339C00034B0822DA610248FDF7F8FD00BF80BD3F
:1033AC003805002080B582B000AF0346FB80FB8857
:1033BC00B3F5005F03D1074B01221A6005E0FB88CF
:1033CC00B3F5805F01D100F007F800BF0837BD46A8
:1033DC0080BD00BFAC04002080B500AF02E0054BFF
:1033EC001B68984700F020F80346002BF7D100BF6C
:1033FC0080BD00BFA804002080B500AF1720FFF7E8
:10340C00EFFE00BF80BD00BF80B500AF1720FFF7F7
:10341C00D9FE00BF80BD00BF80B500AF1720FFF7FD
:10342C0029FF0346184680BD80B500AF4FF480518C
:10343C000248FDF755FA0346184680BD00140240B9
:10344C00014B1860704700BFB004002038B505462A
:10345C00FCF7C6FE074B044682B2294618684FF0AB
:10346C00FF33FEF781FB08B9A0B238BD4FF0FF3037
:10347C0038BD00BFB0040020DFF834D0002103E0D9
:10348C000C4B5B58435004310B480C4B42189A427E
:10349C00F6D30B4A02E0002342F8043B094B9A4254
:1034AC00F9D3FFF7D7FD00F011F8FFF7ADFA70472D
:1034BC0000000320403700080000002054040020C6
:1034CC0054040020A0060020FEE7000070B50D4E4D
:1034DC000D4CA41BA4100025A54209D10B4E0C4C7D
:1034EC0000F09CF8A41BA4100025A54205D170BDCA
:1034FC0056F8253098470135EEE756F825309847B1
:10350C000135F2E734370008343700083437000847
:10351C003C37000802440346934200D1704703F83D
:10352C00011BF9E7024B13B1024800F005B87047D4
:10353C000000000051350008002301461A461846C9
:10354C0000F016B838B5074D074C641BA4101CB915
:10355C00BDE8384000F068B8013C55F82430984775
:10356C00F5E700BF3C37000840370008704770474C
:10357C002DE9F843264C0646206898460F4691469E
:10358C00FFF7F4FF234B1D68D5F8480118B905F572
:10359C00A670C5F8480143681F2B19DD1E4B33B9C3
:1035AC002068FFF7E4FF4FF0FF30BDE8F8834FF4DD
:1035BC00C870AFF300800028F2D0D5F84831036012
:1035CC0000224260C5F84801C0F88821C0F88C215F
:1035DC0043689EB100EB83050122C5F88890D0F8B2
:1035EC0088119A401143022EC0F88811C5F8088141
:1035FC0002BFD0F88C110A43C0F88C215A1C02333C
:10360C00426040F823702068FFF7B1FF0020CCE740
:10361C00500400202837000800000000F8B500BF57
:10362C00F8BC08BC9E467047F8B500BFF8BC08BC97
:04363C009E467047EF
:10364000000098599859EA518E421E45142E008068
:10365000EA51F4283233E03A703DE03AC235842B27
:10366000C2353233C235C235AE47E03A5038A230A7
:10367000503800003C001A3152001A339A001A35B3
:103680001D011A376B003B31BE003B335E013B35F9
:1036900096023B3787008D000A00160001000600E5
:1036A000010002004010080007A9022570889B88CD
:1036B000D8BC00001E265626BEBE00000704000926
:1036C0000805400809104008080540081D040008C6
:1036D0001D040008405C0000A05C0400C06C0800F1
:1036E000805C0400E03F1E00E07D1E00000001023F
:1036F00003040005000000000000000001020304B4
:1037000006070809000000000102030453494D5058
:103710004C452054582076312E320000494E4954F1
:0C372000204641494C4544002800002090
:08372C0000CBFF7F010000004B
:0837340031350008D101000845
:04373C00AD010008D3
:1037400001000000100000007004002002020802C6
:103750000909010000002104C500444543415741C7
:10376000564500000024F40000000000140300206F
:103770007C030020E40300200000000000000000A3
:103780000000000000000000000000000000000039
:103790000000000000000000000000000000000029
:1037A0000000000000000000000000000000000019
:1037B0000000000000000000000000000000000009
:1037C00000000000000000000000000000000000F9
:1037D00000000000000000000000000000000000E9
:1037E00000000000000000000000000000000000D9
:1037F00000000000000000000000000000000000C9
:1038000000000000000000000000000000000000B8
:1038100001000000000000000E33CDAB34126DE655
:10382000ECDE05000B0000000000000000000000BE
:103830000000000000000000000000000000000088
:103840000000000000000000000000000000000078
:103850000000000000000000000000000000000068
:103860000000000000000000000000000000000058
:043B90009406002077
:040000050800348536
:00000001FF
